{"abi":[{"type":"constructor","inputs":[],"stateMutability":"nonpayable"},{"type":"function","name":"addAccidentRecord","inputs":[{"name":"tokenId","type":"uint256","internalType":"uint256"},{"name":"mileage","type":"uint256","internalType":"uint256"},{"name":"timestamp","type":"uint256","internalType":"uint256"},{"name":"description","type":"string","internalType":"string"}],"outputs":[],"stateMutability":"nonpayable"},{"type":"function","name":"addServiceRecord","inputs":[{"name":"tokenId","type":"uint256","internalType":"uint256"},{"name":"mileage","type":"uint256","internalType":"uint256"},{"name":"timestamp","type":"uint256","internalType":"uint256"},{"name":"description","type":"string","internalType":"string"}],"outputs":[],"stateMutability":"nonpayable"},{"type":"function","name":"approve","inputs":[{"name":"to","type":"address","internalType":"address"},{"name":"tokenId","type":"uint256","internalType":"uint256"}],"outputs":[],"stateMutability":"nonpayable"},{"type":"function","name":"balanceOf","inputs":[{"name":"owner","type":"address","internalType":"address"}],"outputs":[{"name":"","type":"uint256","internalType":"uint256"}],"stateMutability":"view"},{"type":"function","name":"exists","inputs":[{"name":"tokenId","type":"uint256","internalType":"uint256"}],"outputs":[{"name":"","type":"bool","internalType":"bool"}],"stateMutability":"view"},{"type":"function","name":"getApproved","inputs":[{"name":"tokenId","type":"uint256","internalType":"uint256"}],"outputs":[{"name":"","type":"address","internalType":"address"}],"stateMutability":"view"},{"type":"function","name":"getVehicleData","inputs":[{"name":"tokenId","type":"uint256","internalType":"uint256"}],"outputs":[{"name":"","type":"uint256","internalType":"uint256"},{"name":"","type":"tuple[]","internalType":"struct VehicleNFT.ServiceRecord[]","components":[{"name":"mileage","type":"uint256","internalType":"uint256"},{"name":"timestamp","type":"uint256","internalType":"uint256"},{"name":"description","type":"string","internalType":"string"}]},{"name":"","type":"tuple[]","internalType":"struct VehicleNFT.AccidentRecord[]","components":[{"name":"mileage","type":"uint256","internalType":"uint256"},{"name":"timestamp","type":"uint256","internalType":"uint256"},{"name":"description","type":"string","internalType":"string"}]}],"stateMutability":"view"},{"type":"function","name":"isApprovedForAll","inputs":[{"name":"owner","type":"address","internalType":"address"},{"name":"operator","type":"address","internalType":"address"}],"outputs":[{"name":"","type":"bool","internalType":"bool"}],"stateMutability":"view"},{"type":"function","name":"mint","inputs":[{"name":"to","type":"address","internalType":"address"},{"name":"tokenURI","type":"string","internalType":"string"}],"outputs":[],"stateMutability":"nonpayable"},{"type":"function","name":"name","inputs":[],"outputs":[{"name":"","type":"string","internalType":"string"}],"stateMutability":"view"},{"type":"function","name":"owner","inputs":[],"outputs":[{"name":"","type":"address","internalType":"address"}],"stateMutability":"view"},{"type":"function","name":"ownerOf","inputs":[{"name":"tokenId","type":"uint256","internalType":"uint256"}],"outputs":[{"name":"","type":"address","internalType":"address"}],"stateMutability":"view"},{"type":"function","name":"renounceOwnership","inputs":[],"outputs":[],"stateMutability":"nonpayable"},{"type":"function","name":"safeTransferFrom","inputs":[{"name":"from","type":"address","internalType":"address"},{"name":"to","type":"address","internalType":"address"},{"name":"tokenId","type":"uint256","internalType":"uint256"}],"outputs":[],"stateMutability":"nonpayable"},{"type":"function","name":"safeTransferFrom","inputs":[{"name":"from","type":"address","internalType":"address"},{"name":"to","type":"address","internalType":"address"},{"name":"tokenId","type":"uint256","internalType":"uint256"},{"name":"data","type":"bytes","internalType":"bytes"}],"outputs":[],"stateMutability":"nonpayable"},{"type":"function","name":"setApprovalForAll","inputs":[{"name":"operator","type":"address","internalType":"address"},{"name":"approved","type":"bool","internalType":"bool"}],"outputs":[],"stateMutability":"nonpayable"},{"type":"function","name":"supportsInterface","inputs":[{"name":"interfaceId","type":"bytes4","internalType":"bytes4"}],"outputs":[{"name":"","type":"bool","internalType":"bool"}],"stateMutability":"view"},{"type":"function","name":"symbol","inputs":[],"outputs":[{"name":"","type":"string","internalType":"string"}],"stateMutability":"view"},{"type":"function","name":"tokenCounter","inputs":[],"outputs":[{"name":"","type":"uint256","internalType":"uint256"}],"stateMutability":"view"},{"type":"function","name":"tokenURI","inputs":[{"name":"tokenId","type":"uint256","internalType":"uint256"}],"outputs":[{"name":"","type":"string","internalType":"string"}],"stateMutability":"view"},{"type":"function","name":"transferFrom","inputs":[{"name":"from","type":"address","internalType":"address"},{"name":"to","type":"address","internalType":"address"},{"name":"tokenId","type":"uint256","internalType":"uint256"}],"outputs":[],"stateMutability":"nonpayable"},{"type":"function","name":"transferOwnership","inputs":[{"name":"newOwner","type":"address","internalType":"address"}],"outputs":[],"stateMutability":"nonpayable"},{"type":"function","name":"updateMileage","inputs":[{"name":"tokenId","type":"uint256","internalType":"uint256"},{"name":"mileage","type":"uint256","internalType":"uint256"}],"outputs":[],"stateMutability":"nonpayable"},{"type":"function","name":"vehicleData","inputs":[{"name":"","type":"uint256","internalType":"uint256"}],"outputs":[{"name":"mileage","type":"uint256","internalType":"uint256"}],"stateMutability":"view"},{"type":"event","name":"AccidentRecordAdded","inputs":[{"name":"tokenId","type":"uint256","indexed":false,"internalType":"uint256"},{"name":"mileage","type":"uint256","indexed":false,"internalType":"uint256"},{"name":"timestamp","type":"uint256","indexed":false,"internalType":"uint256"},{"name":"description","type":"string","indexed":false,"internalType":"string"}],"anonymous":false},{"type":"event","name":"Approval","inputs":[{"name":"owner","type":"address","indexed":true,"internalType":"address"},{"name":"approved","type":"address","indexed":true,"internalType":"address"},{"name":"tokenId","type":"uint256","indexed":true,"internalType":"uint256"}],"anonymous":false},{"type":"event","name":"ApprovalForAll","inputs":[{"name":"owner","type":"address","indexed":true,"internalType":"address"},{"name":"operator","type":"address","indexed":true,"internalType":"address"},{"name":"approved","type":"bool","indexed":false,"internalType":"bool"}],"anonymous":false},{"type":"event","name":"BatchMetadataUpdate","inputs":[{"name":"_fromTokenId","type":"uint256","indexed":false,"internalType":"uint256"},{"name":"_toTokenId","type":"uint256","indexed":false,"internalType":"uint256"}],"anonymous":false},{"type":"event","name":"MetadataUpdate","inputs":[{"name":"_tokenId","type":"uint256","indexed":false,"internalType":"uint256"}],"anonymous":false},{"type":"event","name":"OwnershipTransferred","inputs":[{"name":"previousOwner","type":"address","indexed":true,"internalType":"address"},{"name":"newOwner","type":"address","indexed":true,"internalType":"address"}],"anonymous":false},{"type":"event","name":"ServiceRecordAdded","inputs":[{"name":"tokenId","type":"uint256","indexed":false,"internalType":"uint256"},{"name":"mileage","type":"uint256","indexed":false,"internalType":"uint256"},{"name":"timestamp","type":"uint256","indexed":false,"internalType":"uint256"},{"name":"description","type":"string","indexed":false,"internalType":"string"}],"anonymous":false},{"type":"event","name":"Transfer","inputs":[{"name":"from","type":"address","indexed":true,"internalType":"address"},{"name":"to","type":"address","indexed":true,"internalType":"address"},{"name":"tokenId","type":"uint256","indexed":true,"internalType":"uint256"}],"anonymous":false},{"type":"event","name":"VehicleDataUpdated","inputs":[{"name":"tokenId","type":"uint256","indexed":false,"internalType":"uint256"},{"name":"mileage","type":"uint256","indexed":false,"internalType":"uint256"}],"anonymous":false},{"type":"error","name":"ERC721IncorrectOwner","inputs":[{"name":"sender","type":"address","internalType":"address"},{"name":"tokenId","type":"uint256","internalType":"uint256"},{"name":"owner","type":"address","internalType":"address"}]},{"type":"error","name":"ERC721InsufficientApproval","inputs":[{"name":"operator","type":"address","internalType":"address"},{"name":"tokenId","type":"uint256","internalType":"uint256"}]},{"type":"error","name":"ERC721InvalidApprover","inputs":[{"name":"approver","type":"address","internalType":"address"}]},{"type":"error","name":"ERC721InvalidOperator","inputs":[{"name":"operator","type":"address","internalType":"address"}]},{"type":"error","name":"ERC721InvalidOwner","inputs":[{"name":"owner","type":"address","internalType":"address"}]},{"type":"error","name":"ERC721InvalidReceiver","inputs":[{"name":"receiver","type":"address","internalType":"address"}]},{"type":"error","name":"ERC721InvalidSender","inputs":[{"name":"sender","type":"address","internalType":"address"}]},{"type":"error","name":"ERC721NonexistentToken","inputs":[{"name":"tokenId","type":"uint256","internalType":"uint256"}]},{"type":"error","name":"OwnableInvalidOwner","inputs":[{"name":"owner","type":"address","internalType":"address"}]},{"type":"error","name":"OwnableUnauthorizedAccount","inputs":[{"name":"account","type":"address","internalType":"address"}]}],"bytecode":{"object":"0x608060405234801561001057600080fd5b50336040518060400160405280600a81526020016915995a1a58db1953919560b21b815250604051806040016040528060048152602001631593919560e21b815250816000908161006191906101a4565b50600161006e82826101a4565b5050506001600160a01b03811661009f57604051631e4fbdf760e01b81526000600482015260240160405180910390fd5b6100a8816100b3565b506000600855610262565b600780546001600160a01b038381166001600160a01b0319831681179093556040519116919082907f8be0079c531659141344cd1fd0a4f28419497f9722a3daafe3b4186f6b6457e090600090a35050565b634e487b7160e01b600052604160045260246000fd5b600181811c9082168061012f57607f821691505b60208210810361014f57634e487b7160e01b600052602260045260246000fd5b50919050565b601f82111561019f57806000526020600020601f840160051c8101602085101561017c5750805b601f840160051c820191505b8181101561019c5760008155600101610188565b50505b505050565b81516001600160401b038111156101bd576101bd610105565b6101d1816101cb845461011b565b84610155565b6020601f82116001811461020557600083156101ed5750848201515b600019600385901b1c1916600184901b17845561019c565b600084815260208120601f198516915b828110156102355787850151825560209485019460019092019101610215565b50848210156102535786840151600019600387901b60f8161c191681555b50505050600190811b01905550565b611e9f806102716000396000f3fe608060405234801561001057600080fd5b50600436106101585760003560e01c80638da5cb5b116100c3578063c98315411161007c578063c9831541146102f6578063d082e38114610309578063d0def52114610312578063e1659e9514610325578063e985e9c514610338578063f2fde38b1461034b57600080fd5b80638da5cb5b1461028257806395d89b4114610293578063a22cb4651461029b578063b88d4fde146102ae578063c87b56dd146102c1578063c8920eb1146102d457600080fd5b806342842e0e1161011557806342842e0e1461021b5780634f558e791461022e5780636352211e1461024157806370a0823114610254578063715018a6146102675780637a736d311461026f57600080fd5b806301ffc9a71461015d5780630409d1121461018557806306fdde03146101b3578063081812fc146101c8578063095ea7b3146101f357806323b872dd14610208575b600080fd5b61017061016b366004611720565b61035e565b60405190151581526020015b60405180910390f35b6101a561019336600461173d565b60096020526000908152604090205481565b60405190815260200161017c565b6101bb610389565b60405161017c91906117a6565b6101db6101d636600461173d565b61041b565b6040516001600160a01b03909116815260200161017c565b6102066102013660046117d5565b610444565b005b6102066102163660046117ff565b610453565b6102066102293660046117ff565b6104e3565b61017061023c36600461173d565b610503565b6101db61024f36600461173d565b610522565b6101a561026236600461183c565b61052d565b610206610575565b61020661027d366004611857565b610589565b6007546001600160a01b03166101db565b6101bb6106a9565b6102066102a93660046118e6565b6106b8565b6102066102bc3660046119b2565b6106c3565b6101bb6102cf36600461173d565b6106db565b6102e76102e236600461173d565b6107ec565b60405161017c93929190611a57565b610206610304366004611b1f565b610a8f565b6101a560085481565b610206610320366004611b41565b610b94565b610206610333366004611857565b610d22565b610170610346366004611ba3565b610e32565b61020661035936600461183c565b610e60565b60006001600160e01b03198216632483248360e11b1480610383575061038382610e9e565b92915050565b60606000805461039890611bd6565b80601f01602080910402602001604051908101604052809291908181526020018280546103c490611bd6565b80156104115780601f106103e657610100808354040283529160200191610411565b820191906000526020600020905b8154815290600101906020018083116103f457829003601f168201915b5050505050905090565b600061042682610eee565b506000828152600460205260409020546001600160a01b0316610383565b61044f828233610f27565b5050565b6001600160a01b03821661048257604051633250574960e11b8152600060048201526024015b60405180910390fd5b600061048f838333610f34565b9050836001600160a01b0316816001600160a01b0316146104dd576040516364283d7b60e01b81526001600160a01b0380861660048301526024820184905282166044820152606401610479565b50505050565b6104fe838383604051806020016040528060008152506106c3565b505050565b6000818152600260205260408120546001600160a01b03161515610383565b600061038382610eee565b60006001600160a01b038216610559576040516322718ad960e21b815260006004820152602401610479565b506001600160a01b031660009081526003602052604090205490565b61057d61102d565b610587600061105a565b565b843361059482610522565b6001600160a01b0316146105ba5760405162461bcd60e51b815260040161047990611c10565b60096000878152602001908152602001600020600201604051806060016040528087815260200186815260200185858080601f016020809104026020016040519081016040528093929190818152602001838380828437600092018290525093909452505083546001818101865594825260209182902084516003909202019081559083015193810193909355506040810151909190600282019061065f9082611c9a565b5050507ff9613dc0f5c71d67bb51788eca5744acffc77bf7110057fc41bc81fc2bca4d9b8686868686604051610699959493929190611d59565b60405180910390a1505050505050565b60606001805461039890611bd6565b61044f3383836110ac565b6106ce848484610453565b6104dd338585858561114b565b60606106e682610eee565b506000828152600660205260408120805461070090611bd6565b80601f016020809104026020016040519081016040528092919081815260200182805461072c90611bd6565b80156107795780601f1061074e57610100808354040283529160200191610779565b820191906000526020600020905b81548152906001019060200180831161075c57829003601f168201915b50505050509050600061079760408051602081019091526000815290565b905080516000036107a9575092915050565b8151156107db5780826040516020016107c3929190611d9d565b60405160208183030381529060405292505050919050565b6107e484611276565b949350505050565b60008181526002602052604081205460609081906001600160a01b031661086a5760405162461bcd60e51b815260206004820152602c60248201527f4552433732313a206f70657261746f7220717565727920666f72206e6f6e657860448201526b34b9ba32b73a103a37b5b2b760a11b6064820152608401610479565b6000848152600960209081526040808320805460018201805484518187028101870190955280855292959194909360028701939092859284015b8282101561097c578382906000526020600020906003020160405180606001604052908160008201548152602001600182015481526020016002820180546108eb90611bd6565b80601f016020809104026020016040519081016040528092919081815260200182805461091790611bd6565b80156109645780601f1061093957610100808354040283529160200191610964565b820191906000526020600020905b81548152906001019060200180831161094757829003601f168201915b505050505081525050815260200190600101906108a4565b50505050915080805480602002602001604051908101604052809291908181526020016000905b82821015610a7b578382906000526020600020906003020160405180606001604052908160008201548152602001600182015481526020016002820180546109ea90611bd6565b80601f0160208091040260200160405190810160405280929190818152602001828054610a1690611bd6565b8015610a635780601f10610a3857610100808354040283529160200191610a63565b820191906000526020600020905b815481529060010190602001808311610a4657829003601f168201915b505050505081525050815260200190600101906109a3565b505050509050935093509350509193909250565b8133610a9a82610522565b6001600160a01b031614610ac05760405162461bcd60e51b815260040161047990611c10565b600083815260096020526040902054821015610b445760405162461bcd60e51b815260206004820152603c60248201527f4e6577206d696c65616765206d7573742062652067726561746572207468616e60448201527f206f7220657175616c20746f2063757272656e74206d696c65616765000000006064820152608401610479565b60008381526009602090815260409182902084905581518581529081018490527f691c2e15c50ff39e88718f62e3e681d95d969a004164248dc6a374d5d46eb432910160405180910390a1505050565b6001600160a01b038216610bea5760405162461bcd60e51b815260206004820181905260248201527f4552433732313a206d696e7420746f20746865207a65726f20616464726573736044820152606401610479565b600a81604051610bfa9190611dcc565b9081526040519081900360200190205460ff1615610c5a5760405162461bcd60e51b815260206004820152601e60248201527f4552433732313a20746f6b656e2055524920616c7265616479207573656400006044820152606401610479565b6008546000818152600260205260409020546001600160a01b031615610cc25760405162461bcd60e51b815260206004820152601c60248201527f4552433732313a20746f6b656e20616c7265616479206d696e746564000000006044820152606401610479565b610ccc83826112eb565b610cd68183611305565b6001600a83604051610ce89190611dcc565b908152604051908190036020019020805491151560ff1990921691909117905560088054906000610d1883611de8565b9190505550505050565b8433610d2d82610522565b6001600160a01b031614610d535760405162461bcd60e51b815260040161047990611c10565b60096000878152602001908152602001600020600101604051806060016040528087815260200186815260200185858080601f0160208091040260200160405190810160405280939291908181526020018383808284376000920182905250939094525050835460018181018655948252602091829020845160039092020190815590830151938101939093555060408101519091906002820190610df89082611c9a565b5050507fbdf25579e471a96dd718c178c51b0dbcaa735b650ddff2e3dab545d802c2b50a8686868686604051610699959493929190611d59565b6001600160a01b03918216600090815260056020908152604080832093909416825291909152205460ff1690565b610e6861102d565b6001600160a01b038116610e9257604051631e4fbdf760e01b815260006004820152602401610479565b610e9b8161105a565b50565b60006001600160e01b031982166380ac58cd60e01b1480610ecf57506001600160e01b03198216635b5e139f60e01b145b8061038357506301ffc9a760e01b6001600160e01b0319831614610383565b6000818152600260205260408120546001600160a01b03168061038357604051637e27328960e01b815260048101849052602401610479565b6104fe8383836001611355565b6000828152600260205260408120546001600160a01b0390811690831615610f6157610f6181848661145b565b6001600160a01b03811615610f9f57610f7e600085600080611355565b6001600160a01b038116600090815260036020526040902080546000190190555b6001600160a01b03851615610fce576001600160a01b0385166000908152600360205260409020805460010190555b60008481526002602052604080822080546001600160a01b0319166001600160a01b0389811691821790925591518793918516917fddf252ad1be2c89b69c2b068fc378daa952ba7f163c4a11628f55a4df523b3ef91a4949350505050565b6007546001600160a01b031633146105875760405163118cdaa760e01b8152336004820152602401610479565b600780546001600160a01b038381166001600160a01b0319831681179093556040519116919082907f8be0079c531659141344cd1fd0a4f28419497f9722a3daafe3b4186f6b6457e090600090a35050565b6001600160a01b0382166110de57604051630b61174360e31b81526001600160a01b0383166004820152602401610479565b6001600160a01b03838116600081815260056020908152604080832094871680845294825291829020805460ff191686151590811790915591519182527f17307eab39ab6107e8899845ad3d59bd9653f200f220920489ca2b5937696c31910160405180910390a3505050565b6001600160a01b0383163b1561126f57604051630a85bd0160e11b81526001600160a01b0384169063150b7a029061118d908890889087908790600401611e0f565b6020604051808303816000875af19250505080156111c8575060408051601f3d908101601f191682019092526111c591810190611e4c565b60015b611231573d8080156111f6576040519150601f19603f3d011682016040523d82523d6000602084013e6111fb565b606091505b50805160000361122957604051633250574960e11b81526001600160a01b0385166004820152602401610479565b805181602001fd5b6001600160e01b03198116630a85bd0160e11b1461126d57604051633250574960e11b81526001600160a01b0385166004820152602401610479565b505b5050505050565b606061128182610eee565b50600061129960408051602081019091526000815290565b905060008151116112b957604051806020016040528060008152506112e4565b806112c3846114bf565b6040516020016112d4929190611d9d565b6040516020818303038152906040525b9392505050565b61044f828260405180602001604052806000815250611552565b600082815260066020526040902061131d8282611c9a565b506040518281527ff8e1a15aba9398e019f0b49df1a4fde98ee17ae345cb5f6b5e2c27f5033e8ce79060200160405180910390a15050565b808061136957506001600160a01b03821615155b1561142b57600061137984610eee565b90506001600160a01b038316158015906113a55750826001600160a01b0316816001600160a01b031614155b80156113b857506113b68184610e32565b155b156113e15760405163a9fbf51f60e01b81526001600160a01b0384166004820152602401610479565b81156114295783856001600160a01b0316826001600160a01b03167f8c5be1e5ebec7d5bd14f71427d1e84f3dd0314c0f7b2291e5b200ac8c7c3b92560405160405180910390a45b505b5050600090815260046020526040902080546001600160a01b0319166001600160a01b0392909216919091179055565b61146683838361156a565b6104fe576001600160a01b03831661149457604051637e27328960e01b815260048101829052602401610479565b60405163177e802f60e01b81526001600160a01b038316600482015260248101829052604401610479565b606060006114cc836115cd565b600101905060008167ffffffffffffffff8111156114ec576114ec611922565b6040519080825280601f01601f191660200182016040528015611516576020820181803683370190505b5090508181016020015b600019016f181899199a1a9b1b9c1cb0b131b232b360811b600a86061a8153600a850494508461152057509392505050565b61155c83836116a5565b6104fe33600085858561114b565b60006001600160a01b038316158015906107e45750826001600160a01b0316846001600160a01b031614806115a457506115a48484610e32565b806107e45750506000908152600460205260409020546001600160a01b03908116911614919050565b60008072184f03e93ff9f4daa797ed6e38ed64bf6a1f0160401b831061160c5772184f03e93ff9f4daa797ed6e38ed64bf6a1f0160401b830492506040015b6d04ee2d6d415b85acef81000000008310611638576d04ee2d6d415b85acef8100000000830492506020015b662386f26fc10000831061165657662386f26fc10000830492506010015b6305f5e100831061166e576305f5e100830492506008015b612710831061168257612710830492506004015b60648310611694576064830492506002015b600a83106103835760010192915050565b6001600160a01b0382166116cf57604051633250574960e11b815260006004820152602401610479565b60006116dd83836000610f34565b90506001600160a01b038116156104fe576040516339e3563760e11b815260006004820152602401610479565b6001600160e01b031981168114610e9b57600080fd5b60006020828403121561173257600080fd5b81356112e48161170a565b60006020828403121561174f57600080fd5b5035919050565b60005b83811015611771578181015183820152602001611759565b50506000910152565b60008151808452611792816020860160208601611756565b601f01601f19169290920160200192915050565b6020815260006112e4602083018461177a565b80356001600160a01b03811681146117d057600080fd5b919050565b600080604083850312156117e857600080fd5b6117f1836117b9565b946020939093013593505050565b60008060006060848603121561181457600080fd5b61181d846117b9565b925061182b602085016117b9565b929592945050506040919091013590565b60006020828403121561184e57600080fd5b6112e4826117b9565b60008060008060006080868803121561186f57600080fd5b853594506020860135935060408601359250606086013567ffffffffffffffff81111561189b57600080fd5b8601601f810188136118ac57600080fd5b803567ffffffffffffffff8111156118c357600080fd5b8860208284010111156118d557600080fd5b959894975092955050506020019190565b600080604083850312156118f957600080fd5b611902836117b9565b91506020830135801515811461191757600080fd5b809150509250929050565b634e487b7160e01b600052604160045260246000fd5b60008067ffffffffffffffff84111561195357611953611922565b50604051601f19601f85018116603f0116810181811067ffffffffffffffff8211171561198257611982611922565b60405283815290508082840185101561199a57600080fd5b83836020830137600060208583010152509392505050565b600080600080608085870312156119c857600080fd5b6119d1856117b9565b93506119df602086016117b9565b925060408501359150606085013567ffffffffffffffff811115611a0257600080fd5b8501601f81018713611a1357600080fd5b611a2287823560208401611938565b91505092959194509250565b805182526020810151602083015260006040820151606060408501526107e4606085018261177a565b6000606082018583526060602084015280855180835260808501915060808160051b86010192506020870160005b82811015611ab657607f19878603018452611aa1858351611a2e565b94506020938401939190910190600101611a85565b50505050828103604084015280845180835260208301915060208160051b8401016020870160005b83811015611b1057601f19868403018552611afa838351611a2e565b6020958601959093509190910190600101611ade565b50909998505050505050505050565b60008060408385031215611b3257600080fd5b50508035926020909101359150565b60008060408385031215611b5457600080fd5b611b5d836117b9565b9150602083013567ffffffffffffffff811115611b7957600080fd5b8301601f81018513611b8a57600080fd5b611b9985823560208401611938565b9150509250929050565b60008060408385031215611bb657600080fd5b611bbf836117b9565b9150611bcd602084016117b9565b90509250929050565b600181811c90821680611bea57607f821691505b602082108103611c0a57634e487b7160e01b600052602260045260246000fd5b50919050565b60208082526023908201527f4f6e6c7920746865206f776e65722063616e206d6f646966792074686520746f60408201526235b2b760e91b606082015260800190565b601f8211156104fe57806000526020600020601f840160051c81016020851015611c7a5750805b601f840160051c820191505b8181101561126f5760008155600101611c86565b815167ffffffffffffffff811115611cb457611cb4611922565b611cc881611cc28454611bd6565b84611c53565b6020601f821160018114611cfc5760008315611ce45750848201515b600019600385901b1c1916600184901b17845561126f565b600084815260208120601f198516915b82811015611d2c5787850151825560209485019460019092019101611d0c565b5084821015611d4a5786840151600019600387901b60f8161c191681555b50505050600190811b01905550565b85815284602082015283604082015260806060820152816080820152818360a0830137600081830160a090810191909152601f909201601f19160101949350505050565b60008351611daf818460208801611756565b835190830190611dc3818360208801611756565b01949350505050565b60008251611dde818460208701611756565b9190910192915050565b600060018201611e0857634e487b7160e01b600052601160045260246000fd5b5060010190565b6001600160a01b0385811682528416602082015260408101839052608060608201819052600090611e429083018461177a565b9695505050505050565b600060208284031215611e5e57600080fd5b81516112e48161170a56fea2646970667358221220bedad2d8b63628ad0d618f63a5eed3384a1d895e48e323f12e141f51d9b7b24264736f6c634300081a0033","linkReferences":{}},"methodIdentifiers":{"addAccidentRecord(uint256,uint256,uint256,string)":"7a736d31","addServiceRecord(uint256,uint256,uint256,string)":"e1659e95","approve(address,uint256)":"095ea7b3","balanceOf(address)":"70a08231","exists(uint256)":"4f558e79","getApproved(uint256)":"081812fc","getVehicleData(uint256)":"c8920eb1","isApprovedForAll(address,address)":"e985e9c5","mint(address,string)":"d0def521","name()":"06fdde03","owner()":"8da5cb5b","ownerOf(uint256)":"6352211e","renounceOwnership()":"715018a6","safeTransferFrom(address,address,uint256)":"42842e0e","safeTransferFrom(address,address,uint256,bytes)":"b88d4fde","setApprovalForAll(address,bool)":"a22cb465","supportsInterface(bytes4)":"01ffc9a7","symbol()":"95d89b41","tokenCounter()":"d082e381","tokenURI(uint256)":"c87b56dd","transferFrom(address,address,uint256)":"23b872dd","transferOwnership(address)":"f2fde38b","updateMileage(uint256,uint256)":"c9831541","vehicleData(uint256)":"0409d112"},"id":39}